:1000000014C1000040C100003EC100003CC100001E
:100010003AC1000038C1000036C1000034C1000000
:1000200032C1000030C100002EC100002CC1000010
:100030002AC1000028C1000026C1000024C1000020
:1000400022C1000020C100001EC100001CC1000030
:100050001AC1000018C1000016C1000024C300002E
:1000600012C1000093C3000068C300000CC100006F
:100070000AC1000008C1000006C1000004C1000060
:1000800002C1000000C10000FEC00000FCC0000072
:10009000FAC00000F8C00000F6C00000F4C0000084
:1000A000F2C00000F0C00000EEC00000ECC0000094
:1000B000EAC00000E8C00000E6C00000E4C00000A4
:1000C000E2C00000E0C00000DEC00000DCC00000B4
:1000D000DAC00000D8C00000D6C00000D4C00000C4
:1000E000D2C0000072017501640168016C01AC01AD
:1000F00079017D01830187018B01910195019901AE
:10010000AC019F01A301A7010000200023002600ED
:1001100029002C002F00320000010000030106011D
:10012000090100002100240027002A002D003000D2
:10013000330001010000040107010A010000220050
:10014000250028002B002E003100340002010000A1
:10015000050108010B010505050507050808080844
:10016000020202020A0A080804040404010101014F
:10017000010101010303030303030303040707074A
:100180000C0C0C0C0C0C0C0C0202020206060606EF
:10019000060606060B0B0B0B0B0B0B0B01021020BC
:1001A00020080810204010204080020102010804AD
:1001B0000201010204081020408080402010080441
:1001C000020180040201804020100804020108049A
:1001D00002010102040810204080010204081020DE
:1001E000408000000A0B02090C0D0E0807030401F1
:1001F00000000000000000000000000000000000FF
:1002000000000000000000000000000000001211CB
:1002100010000000000000000000000000000000CE
:100220000000000000000000950511241FBECFEF64
:10023000D1E2DEBFCDBF00E00CBF12E0A0E0B2E033
:10024000E6EDFFE000E00BBF02C007900D92AE3577
:10025000B107D9F723E0AEE5B2E001C01D92A630A8
:10026000B207E1F711E0C5E1D1E000E005C0219758
:100270000109802FFE01A1D6C431D10780E0080713
:10028000B1F7FFD2A6C6BCCE362F90E0FC01EE51EE
:10029000FE4F4491FC01E456FE4F2491FC01EA5AC2
:1002A000FE4F9491992309F46BC0442309F454C080
:1002B00050E0FA013197E231F10508F04DC088278E
:1002C000EE58FF4F8F4F79C6809180008F7707C01F
:1002D000809180008F7D03C080918000877F809314
:1002E00080003AC084B58F7702C084B58F7D84BD0D
:1002F00033C08091B0008F7703C08091B0008F7DB4
:100300008093B00029C0809190008F7707C08091C2
:1003100090008F7D03C080919000877F8093900034
:100320001BC08091A0008F7707C08091A0008F7DB7
:1003300003C08091A000877F8093A0000DC08091B2
:1003400020018F7707C0809120018F7D03C08091AD
:100350002001877F80932001E92FF0E0EE0FFF1F3F
:10036000E45CFE4FA591B4919FB7F894311104C09D
:100370008C912095282302C0EC912E2B2C939FBFAB
:100380000895CF93DF9390E0FC01E456FE4F249153
:10039000FC01EA5AFE4F8491882361F190E0880FB6
:1003A000991FFC01EE5DFE4FC591D491FC01E45C08
:1003B000FE4FA591B491611109C09FB7F89488814F
:1003C000209582238883EC912E230BC0623061F448
:1003D0009FB7F8948881322F309583238883EC91DE
:1003E0002E2B2C939FBF06C08FB7F894E8812E2B3D
:1003F00028838FBFDF91CF910895CF92DF92EF9244
:10040000FF920F931F93CF93DF936C017A018B01BF
:10041000C0E0D0E0CE15DF0581F0D8016D918D01EF
:10042000D601ED91FC910190F081E02DC601199566
:10043000892B11F02196EECF7E01C701DF91CF917C
:100440001F910F91FF90EF90DF90CF900895089546
:1004500080E090E00895FC01538D448D252F30E01D
:10046000842F90E0821B930B541710F0CF960895C1
:1004700001970895FC01918D828D981761F0828D0E
:10048000DF01A80FB11D5D968C91928D9F5F9F73C8
:10049000928F90E008958FEF9FEF0895FC01918D6A
:1004A000828D981731F0828DE80FF11D858D90E0D7
:1004B00008958FEF9FEF0895FC01918D228D892F74
:1004C00090E0805C9F4F821B91098F73992708955C
:1004D0008EE592E0F1DF21E0892B09F420E0822F04
:1004E0000895FC01848DDF01A80FB11DA35ABF4FF1
:1004F0002C91848D90E001968F739927848FA68923
:10050000B7892C93A089B1898C91837080648C9376
:10051000938D848D981306C00288F389E02D808125
:100520008F7D80830895EF92FF920F931F93CF9357
:10053000DF93EC0181E0888F9B8D8C8D981305C033
:10054000E889F989808185FD25C0F62E0B8D10E0A4
:100550000F5F1F4F0F731127E02E8C8DE8120BC019
:100560000FB607FCFACFE889F989808185FFF5CFBE
:10057000CE01B7DFF2CF8B8DFE01E80FF11DE35AFC
:10058000FF4FF0829FB7F8940B8FEA89FB89808137
:1005900080620AC09FB7F894EE89FF896083E8897A
:1005A000F98980818370806480839FBF81E090E0BF
:1005B000DF91CF911F910F91FF90EF900895CF930E
:1005C000DF93EC01888D8823C1F0EA89FB89808163
:1005D00085FD05C0A889B9898C9186FD0EC00FB62E
:1005E00007FCF5CF808185FFF2CFA889B9898C916E
:1005F00085FFEDCFCE0175DFE8CFDF91CF91089574
:1006000080E090E0892B19F063DF811125C080E044
:1006100090E0892B41F080E090E0892B21F00E944E
:10062000000081111CC080E090E0892B41F080E047
:1006300090E0892B21F00E940000811113C080E01E
:1006400090E0892BA1F080E090E0892B81F00E945E
:10065000000081110AC008950E940000D8CF0E94B6
:100660000000E1CF0E940000EACF0C940000089542
:10067000ACD4CF92DF92EF92FF928CE0C82ED12CB7
:10068000E12CF12CC7D2A701960118D32091FB02CF
:100690003091FC0226173707A9F3CB01FF90EF90AA
:1006A000DF90CF9008951F920F920FB60F921124F2
:1006B0002F933F938F939F93AF93BF9380910203A8
:1006C00090910303A0910403B091050330910103BD
:1006D00023E0230F2D3720F40196A11DB11D05C085
:1006E00026E8230F0296A11DB11D209301038093DC
:1006F000020390930303A0930403B0930503809136
:10070000FD029091FE02A091FF02B09100030196BC
:10071000A11DB11D8093FD029093FE02A093FF02E4
:10072000B0930003BF91AF919F918F913F912F9113
:100730000F900FBE0F901F9018951F920F920FB63B
:100740000F9211240BB60F922F933F934F935F9309
:100750006F937F938F939F93AF93BF93EF93FF9389
:100760008EE592E0BEDEFF91EF91BF91AF919F9138
:100770008F917F916F915F914F913F912F910F904A
:100780000BBE0F900FBE0F901F9018951F920F92E7
:100790000FB60F9211240BB60F922F938F939F9346
:1007A000EF93FF93E0916E02F0916F028081E091F0
:1007B0007402F091750282FD12C0908180917702DF
:1007C0008F5F8F7320917802821751F0E09177024A
:1007D000F0E0E25AFD4F958F8093770201C080814F
:1007E000FF91EF919F918F912F910F900BBE0F90E2
:1007F0000FBE0F901F901895CF92DF92EF92FF924D
:100800000F931F93E82FF92F05C0015011092109FB
:10081000310961F1908196239417B9F305C0015015
:1008200011092109310911F1908196239413F7CF11
:10083000C12CD12CE12CF12C0AC08FEFC81AD80A98
:10084000E80AF80A0C151D052E053F0579F0808190
:100850008623841791F36C2D7D2D8E2D9F2D1F9156
:100860000F91FF90EF90DF90CF90089560E070E0DF
:1008700080E090E01F910F91FF90EF90DF90CF907C
:100880000895789484B5826084BD84B5816084BD08
:1008900085B5826085BD85B5816085BD80916E001E
:1008A000816080936E00109281008091810082604F
:1008B000809381008091810081608093810080918C
:1008C00080008160809380008091B100846080937B
:1008D000B1008091B00081608093B0008091910060
:1008E000826080939100809191008160809391005B
:1008F000809190008160809390008091A10082603F
:100900008093A1008091A10081608093A1008091DB
:10091000A00081608093A00080912101826080937B
:10092000210180912101816080932101809120012A
:1009300081608093200180917A00846080937A00A6
:1009400080917A00826080937A0080917A00816041
:1009500080937A0080917A00806880937A00109268
:10096000C100E0916E02F0916F0282E08083E0911D
:100970006A02F0916B021082E0916C02F0916D02BC
:100980008FEC808310927602E0917202F0917302F4
:1009900086E08083E0917002F09171028081806135
:1009A0008083E0917002F091710280818860808381
:1009B000E0917002F0917102808180688083E09103
:1009C0007002F091710280818F7D808380917B0025
:1009D000877F80937B0080E480937C0080917A0005
:1009E000806480937A0080917A0086FDFCCF6091CC
:1009F00078008091790070E0782B072E000C880B2E
:100A0000990B611571058105910509F04ED1C6E17B
:100A1000D2E00EE512E061E08881B3DC60E08A811B
:100A2000B0DC61E08C81ADDC26960C171D0799F7D0
:100A300020DE9093FC028093FB0296E0D92ECFE05B
:100A4000D0E023E2E22EF12C8091FB029091FC0297
:100A5000D89E8001D99E100D11240A5E1D4F61E0C1
:100A6000F801848111DCF801C08060E08C2D0CDC81
:100A7000CE010197F1F761E08C2D06DCC7010197EB
:100A8000F1F760E08C2D00DCF801828193819927D9
:100A9000FC01E456FE4F6491FC01EA5AFE4FE491DA
:100AA000F0E0EE0FFF1FE85FFE4F8591949100E4A8
:100AB00012E42FE030E0462F9FDE611571058105BD
:100AC000910549F0DC01CB010196A11DB11DBC01CE
:100AD000CD019F7003C060E070E0CB017FD128E2C0
:100AE0003EE74CE05DE3DED120E030E040E05FE354
:100AF000D9D141D16B3071058105910510F080DDB0
:100B0000A3CF8091FB029091FC02D89EF001D99E68
:100B1000F00D1124EA5EFD4F60E08481B5DBA9DDB4
:100B20009093FC028093FB02EACFEEE5F2E01382A1
:100B3000128288EE93E0A0E0B0E084839583A683E0
:100B4000B78388E092E09183808385EC90E095877D
:100B5000848784EC90E09787868780EC90E0918B87
:100B6000808B81EC90E0938B828B82EC90E0958B74
:100B7000848B86EC90E0978B868B118E128E138E71
:100B8000148E08958F929F92AF92BF92CF92DF9270
:100B9000EF92FF92CF93DF93EC01688179818A8194
:100BA0009B81611571058105910521F464E279ED60
:100BB0008BE597E02DE133EF41E050E07FD0490134
:100BC0005A019B01AC01A7EAB1E494D06B017C010E
:100BD000ACEEB4EFA501940199D0DC01CB018C0DF2
:100BE0009D1DAE1DBF1DB7FF03C00197A109B048F1
:100BF00088839983AA83BB83BC01CD019F77DF9152
:100C0000CF91FF90EF90DF90CF90BF90AF909F90EB
:100C10008F9008958F929F92AF92BF92CF92DF9262
:100C2000EF92FF92609100027091010280910202A6
:100C300090910302611571058105910521F464E22B
:100C400079ED8BE597E02DE133EF41E050E036D0D0
:100C500049015A019B01AC01A7EAB1E44BD06B01F9
:100C60007C01ACEEB4EFA501940150D0DC01CB01C6
:100C70008C0D9D1DAE1DBF1DB7FF03C00197A109BF
:100C8000B0488093000290930102A0930202B093B7
:100C90000302BC01CD019F77FF90EF90DF90CF90D2
:100CA000BF90AF909F908F900895609300027093D3
:100CB000010280930202909303020895052E97FB90
:100CC00016F400940FD057FD05D024D007FC02D0B5
:100CD00046F408C050954095309521953F4F4F4FB1
:100CE0005F4F089590958095709561957F4F8F4FD8
:100CF0009F4F089531D0A59F900DB49F900DA49F54
:100D0000800D911D11240895B7FFF4CFF3DF821BEE
:100D1000930B0895A1E21A2EAA1BBB1BFD010DC067
:100D2000AA1FBB1FEE1FFF1FA217B307E407F5079B
:100D300020F0A21BB30BE40BF50B661F771F881F77
:100D4000991F1A9469F760957095809590959B010D
:100D5000AC01BD01CF010895A29FB001B39FC001B6
:100D6000A39F700D811D1124911DB29F700D811DD7
:100D70001124911D089504D06894B1118DC0089577
:100D800070D088F09F5790F0B92F9927B751A0F0F5
:100D9000D1F0660F771F881F991F1AF0BA95C9F70F
:100DA00012C0B13081F077D0B1E0089574C0672FE0
:100DB000782F8827B85F39F0B93FCCF386957795BF
:100DC0006795B395D9F73EF49095809570956195A8
:100DD0007F4F8F4F9F4F0895E89409C097FB3EF4D3
:100DE00090958095709561957F4F8F4F9F4F992378
:100DF000A9F0F92F96E9BB279395F69587957795F6
:100E00006795B795F111F8CFFAF4BB0F11F460FFB5
:100E10001BC06F5F7F4F8F4F9F4F16C0882311F00D
:100E200096E911C0772321F09EE8872F762F05C021
:100E3000662371F096E8862F70E060E02AF09A95BC
:100E4000660F771F881FDAF7880F9695879597F9B1
:100E5000089557FD9058440F551F59F05F3F71F0AA
:100E60004795880F97FB991F61F09F3F79F0879511
:100E70000895121613061406551FF2CF4695F1DF9A
:100E800008C0161617061806991FF1CF869571052A
:100E9000610508940895E894BB2766277727CB015E
:100EA00097F908950BD078C069D028F06ED018F06B
:100EB000952309F05AC05FC01124EECFCADFA0F31A
:100EC000959FD1F3950F50E0551F629FF001729FDF
:100ED000BB27F00DB11D639FAA27F00DB11DAA1FFE
:100EE000649F6627B00DA11D661F829F2227B00D4B
:100EF000A11D621F739FB00DA11D621F839FA00DD6
:100F0000611D221F749F3327A00D611D231F849F25
:100F1000600D211D822F762F6A2F11249F5750407C
:100F20008AF0E1F088234AF0EE0FFF1FBB1F661F17
:100F3000771F881F91505040A9F79E3F510570F0D0
:100F400014C0AACF5F3FECF3983EDCF3869577950B
:100F50006795B795F795E7959F5FC1F7FE2B880FCB
:100F6000911D9695879597F9089597F99F6780E861
:100F700070E060E008959FEF80EC089500240A94EB
:100F80001616170618060906089500240A94121664
:100F90001306140605060895092E0394000C11F497
:100FA000882352F0BB0F40F4BF2B11F460FF04C044
:100FB0006F5F7F4F8F4F9F4F0895EE0FFF1F881F6A
:100FC0008BBF0790F691E02D199481E090E0F894A2
:060FD00000C0F894FFCF01
:100FD60001000000000000009302FD012B02DF0269
:100FE6005C023A024E020200030004000200050001
:100FF6000600020007000800020009000A000200BD
:101006000B000C0002000D000E0002000F00100085
:101016000200110012000200130014000200150065
:0E1026001600020017001800020019001A0040
:00000001FF
