:100000000C9462000C948A000C948A000C948A0070
:100010000C948A000C948A000C948A000C948A0038
:100020000C948A000C948A000C948A000C948A0028
:100030000C948A000C948A000C948A000C948A0018
:100040000C9443020C948A000C94B3020C948D021D
:100050000C948A000C948A000C948A000C948A00F8
:100060000C948A000C948A000000000023002600F3
:10007000290000000000240027002A0000000000E2
:10008000250028002B0004040404040404040202D4
:100090000202020203030303030301020408102007
:1000A0004080010204081020010204081020000012
:1000B0000008000201000003040700000000000027
:1000C00000005D0411241FBECFEFD8E0DEBFCDBF1E
:1000D00011E0A0E0B1E0EAE9FDE002C005900D9278
:1000E000AE35B107D9F722E0AEE5B1E001C01D920F
:1000F000A630B207E1F710E0C2E6D0E004C02197D5
:10010000FE010E94C006C136D107C9F70E942A032A
:100110000C94CB060C94000090E0FC01E255FF4FDC
:100120002491FC01E656FF4F3491FC01EA57FF4F42
:10013000E491EE2309F43CC0222339F1233091F0FD
:1001400038F42130A9F0223001F584B58F7D12C03A
:10015000273091F02830A1F02430B9F4809180004C
:100160008F7D03C0809180008F77809380000DC0C9
:1001700084B58F7784BD09C08091B0008F7703C0AC
:100180008091B0008F7D8093B000F0E0EE0FFF1FF4
:10019000E458FF4FA591B4919FB7F894611104C042
:1001A0008C913095382302C0EC913E2B3C939FBF3D
:1001B0000895CF93DF9390E0FC01E656FF4F249122
:1001C000FC01EA57FF4F8491882361F190E0880F8A
:1001D000991FFC01EE58FF4FC591D491FC01E458E2
:1001E000FF4FA591B491611109C09FB7F894888120
:1001F000209582238883EC912E230BC0623061F41A
:100200009FB7F8948881322F309583238883EC91AF
:100210002E2B2C939FBF06C08FB7F894E8812E2B0E
:1002200028838FBFDF91CF910895CF92DF92EF9215
:10023000FF920F931F93CF93DF936C017A018B0191
:10024000C0E0D0E0CE15DF0581F0D8016D918D01C1
:10025000D601ED91FC910190F081E02DC601099548
:10026000892B11F02196EECF7E01C701DF91CF914E
:100270001F910F91FF90EF90DF90CF900895089518
:1002800080E090E00895FC01538D448D252F30E0EF
:10029000842F90E0821B930B541710F0CF96089593
:1002A00001970895FC01918D828D981761F0828DE0
:1002B000DF01A80FB11D5D968C91928D9F5F9F739A
:1002C000928F90E008958FEF9FEF0895FC01918D3C
:1002D000828D981731F0828DE80FF11D858D90E0A9
:1002E00008958FEF9FEF0895FC01918D228D892F46
:1002F00090E0805C9F4F821B91098F73992708952E
:100300008EE591E00E94740121E0892B09F420E040
:10031000822F0895FC01848DDF01A80FB11DA35A1F
:10032000BF4F2C91848D90E001968F739927848F15
:10033000A689B7892C93A089B1898C918370806438
:100340008C93938D848D981306C00288F389E02DD9
:1003500080818F7D80830895EF92FF920F931F938A
:10036000CF93DF93EC0181E0888F9B8D8C8D981368
:1003700005C0E889F989808185FD26C0F62E0B8DA0
:1003800010E00F5F1F4F0F731127E02E8C8DE812C6
:100390000CC00FB607FCFACFE889F989808185FF88
:1003A000F5CFCE010E948A01F1CF8B8DFE01E80FBF
:1003B000F11DE35AFF4FF0829FB7F8940B8FEA8943
:1003C000FB89808180620AC09FB7F894EE89FF891B
:1003D0006083E889F98980818370806480839FBF0E
:1003E00081E090E0DF91CF911F910F91FF90EF900E
:1003F0000895CF93DF93EC01888D8823C9F0EA89B3
:10040000FB89808185FD05C0A889B9898C9186FD0D
:100410000FC00FB607FCF5CF808185FFF2CFA8890A
:10042000B9898C9185FFEDCFCE010E948A01E7CF7B
:10043000DF91CF91089580E090E0892B29F00E9410
:10044000800181110C94000008950E94C606CF928D
:10045000DF92EF92FF928CE0C82ED12CE12CF12C90
:100460000E94D504A70196010E942C052091FB0152
:100470003091FC012617370799F3CB01FF90EF90DD
:10048000DF90CF9008951F920F920FB60F92112414
:100490002F933F938F939F93AF93BF9380910202CB
:1004A00090910302A0910402B091050230910102E3
:1004B00023E0230F2D3720F40196A11DB11D05C0A7
:1004C00026E8230F0296A11DB11D209301028093FF
:1004D000020290930302A0930402B093050280915C
:1004E000FD019091FE01A091FF01B09100020196E3
:1004F000A11DB11D8093FD019093FE01A093FF010A
:10050000B0930002BF91AF919F918F913F912F9136
:100510000F900FBE0F901F9018951F920F920FB65D
:100520000F9211242F933F934F935F936F937F9379
:100530008F939F93AF93BF93EF93FF938EE591E0DB
:100540000E948A01FF91EF91BF91AF919F918F918E
:100550007F916F915F914F913F912F910F900FBEBF
:100560000F901F9018951F920F920FB60F921124A3
:100570002F938F939F93EF93FF93E0916E01F091F0
:100580006F018081E0917401F091750182FD12C0CC
:100590009081809177018F5F8F732091780182170E
:1005A00051F0E0917701F0E0E25AFE4F958F809391
:1005B000770101C08081FF91EF919F918F912F91E1
:1005C0000F900FBE0F901F901895CF92DF92EF9271
:1005D000FF920F931F93E82FF92F05C001501109C7
:1005E0002109310961F1908196239417B9F305C06F
:1005F000015011092109310911F1908196239413B9
:10060000F7CFC12CD12CE12CF12C0AC08FEFC81AE6
:10061000D80AE80AF80A0C151D052E053F0579F0E1
:1006200080818623841791F36C2D7D2D8E2D9F2D37
:100630001F910F91FF90EF90DF90CF90089560E0B1
:1006400070E080E090E01F910F91FF90EF90DF90BD
:10065000CF900895789484B5826084BD84B581601C
:1006600084BD85B5826085BD85B5816085BD80917D
:100670006E00816080936E001092810080918100F5
:1006800082608093810080918100816080938100ED
:10069000809180008160809380008091B1008460AF
:1006A0008093B1008091B00081608093B000809110
:1006B0007A00846080937A0080917A0082608093CF
:1006C0007A0080917A00816080937A0080917A002C
:1006D000806880937A001092C100E0916E01F091E1
:1006E0006F0182E08083E0916A01F0916B011082DA
:1006F000E0916C01F0916D018FEC80831092760196
:10070000E0917201F091730186E08083E0917001C5
:10071000F0917101808180618083E0917001F0919E
:100720007101808188608083E0917001F091710196
:10073000808180688083E0917001F09171018081F7
:100740008F7D808380E480937C0080917A00806438
:1007500080937A0080917A0086FDFCCF60917800CA
:100760008091790070E0782B072E000C880B990B94
:10077000611571058105910511F00E942305C6E1FF
:10078000D1E00EE511E061E088810E94D90060E0CF
:100790008A810E94D90061E08C810E94D90026964E
:1007A0000C171D0781F70E9427029093FC0180938C
:1007B000FB0196E0D92ECFE0D0E023E2E22EF12C2F
:1007C0008091FB019091FC01D89E8001D99E100D73
:1007D00011240A5E1E4F61E0F80184810E948C00A2
:1007E000F801C08060E08C2D0E948C00CE01019742
:1007F000F1F761E08C2D0E948C00C7010197F1F7A1
:1008000060E08C2D0E948C00F801828193819927F1
:10081000FC01E656FF4F6491FC01EA57FF4FE4915B
:10082000F0E0EE0FFF1FE859FF4F8591949100E42F
:1008300012E42FE030E0462F0E94E50261157105B9
:100840008105910549F0DC01CB010196A11DB11D87
:10085000BC01CD019F7003C060E070E0CB010E943D
:10086000C70528E23EE74CE05DE30E942B0620E04E
:1008700030E040E05FE30E942B060E948F056B3062
:1008800071058105910518F00E941B0299CF809196
:10089000FB019091FC01D89EF001D99EF00D11242E
:1008A000EA5EFE4F60E084810E948C000E94270275
:1008B0009093FC018093FB01E7CFEEE5F1E013821A
:1008C000128288EE93E0A0E0B0E084839583A68353
:1008D000B78388E091E09183808385EC90E09587F1
:1008E000848784EC90E09787868780EC90E0918BFA
:1008F000808B81EC90E0938B828B82EC90E0958BE7
:10090000848B86EC90E0978B868B118E128E138EE3
:10091000148E08958F929F92AF92BF92CF92DF92E2
:10092000EF92FF92CF93DF93EC01688179818A8106
:100930009B81611571058105910521F464E279EDD2
:100940008BE597E02DE133EF41E050E00E942C056C
:1009500049015A019B01AC01A7EAB1E40E944B0591
:100960006B017C01ACEEB4EFA50194010E94590526
:10097000DC01CB018C0D9D1DAE1DBF1DB7FF03C05B
:100980000197A109B04888839983AA83BB83BC01DE
:10099000CD019F77DF91CF91FF90EF90DF90CF90C7
:1009A000BF90AF909F908F9008958F929F92AF923B
:1009B000BF92CF92DF92EF92FF926091000170910F
:1009C000010180910201909103016115710581057A
:1009D000910521F464E279ED8BE597E02DE133EFA9
:1009E00041E050E00E942C0549015A019B01AC01F5
:1009F000A7EAB1E40E944B056B017C01ACEEB4EFB9
:100A0000A50194010E945905DC01CB018C0D9D1DAF
:100A1000AE1DBF1DB7FF03C00197A109B048809369
:100A2000000190930101A0930201B0930301BC0166
:100A3000CD019F77FF90EF90DF90CF90BF90AF9068
:100A40009F908F90089560930001709301018093AF
:100A50000201909303010895052E97FB1EF4009464
:100A60000E94430557FD07D00E945E0507FC03D096
:100A70004EF40C94430550954095309521953F4F89
:100A80004F4F5F4F089590958095709561957F4F7A
:100A90008F4F9F4F08950E948005A59F900DB49F92
:100AA000900DA49F800D911D11240895B7FF0C9403
:100AB0004B050E944B05821B930B0895A1E21A2E51
:100AC000AA1BBB1BFD010DC0AA1FBB1FEE1FFF1FF2
:100AD000A217B307E407F50720F0A21BB30BE40B42
:100AE000F50B661F771F881F991F1A9469F7609589
:100AF0007095809590959B01AC01BD01CF01089543
:100B0000A29FB001B39FC001A39F700D811D11244E
:100B1000911DB29F700D811D1124911D08950E9499
:100B200096056894B1110C94250608950E940A0652
:100B300088F09F5798F0B92F9927B751B0F0E1F09E
:100B4000660F771F881F991F1AF0BA95C9F714C04E
:100B5000B13091F00E942406B1E008950C9424066F
:100B6000672F782F8827B85F39F0B93FCCF3869587
:100B700077956795B395D9F73EF4909580957095E4
:100B800061957F4F8F4F9F4F0895E89409C097FB61
:100B90003EF490958095709561957F4F8F4F9F4F54
:100BA0009923A9F0F92F96E9BB279395F695879598
:100BB00077956795B795F111F8CFFAF4BB0F11F45B
:100BC00060FF1BC06F5F7F4F8F4F9F4F16C0882302
:100BD00011F096E911C0772321F09EE8872F762F38
:100BE00005C0662371F096E8862F70E060E02AF079
:100BF0009A95660F771F881FDAF7880F9695879565
:100C000097F9089557FD9058440F551F59F05F3FCD
:100C100071F04795880F97FB991F61F09F3F79F01E
:100C200087950895121613061406551FF2CF4695A0
:100C3000F1DF08C0161617061806991FF1CF869522
:100C40007105610508940895E894BB276627772706
:100C5000CB0197F908950E943E060C94AF060E94BE
:100C6000A10638F00E94A80620F0952311F00C94FC
:100C700098060C949E0611240C9425060E940206E8
:100C800070F3959FC1F3950F50E0551F629FF001DF
:100C9000729FBB27F00DB11D639FAA27F00DB11DF8
:100CA000AA1F649F6627B00DA11D661F829F222781
:100CB000B00DA11D621F739FB00DA11D621F839F08
:100CC000A00D611D221F749F3327A00D611D231FDE
:100CD000849F600D211D822F762F6A2F11249F572C
:100CE00050409AF0F1F088234AF0EE0FFF1FBB1F2F
:100CF000661F771F881F91505040A9F79E3F5105EE
:100D000080F00C9498060C9425065F3FE4F3983E1F
:100D1000D4F3869577956795B795F795E7959F5F97
:100D2000C1F7FE2B880F911D9695879597F9089529
:100D300097F99F6780E870E060E008959FEF80EC8E
:100D4000089500240A941616170618060906089531
:100D500000240A9412161306140605060895092E97
:100D60000394000C11F4882352F0BB0F40F4BF2B06
:100D700011F460FF04C06F5F7F4F8F4F9F4F089546
:100D8000EE0FFF1F0590F491E02D099481E090E0B3
:0A0D9000F8940C94CB06F894FFCF02
:100D9A000100000000000000AC0115014301F90147
:100DAA0074015201660102000300040002000500FA
:100DBA000600020007000800020009000A000200FB
:100DCA000B000C0002000D000E0002000F001000C4
:100DDA0002001100120002001300140002001500A4
:0E0DEA001600020017001800020019001A007F
:107E0000112484B714BE81FFF0D085E080938100F7
:107E100082E08093C00088E18093C10086E0809377
:107E2000C20080E18093C4008EE0C9D0259A86E02C
:107E300020E33CEF91E0309385002093840096BBD3
:107E4000B09BFECF1D9AA8958150A9F7CC24DD24C4
:107E500088248394B5E0AB2EA1E19A2EF3E0BF2EE7
:107E6000A2D0813461F49FD0082FAFD0023811F036
:107E7000013811F484E001C083E08DD089C08234E0
:107E800011F484E103C0853419F485E0A6D080C0E4
:107E9000853579F488D0E82EFF2485D0082F10E0AE
:107EA000102F00270E291F29000F111F8ED06801E7
:107EB0006FC0863521F484E090D080E0DECF843638
:107EC00009F040C070D06FD0082F6DD080E0C81688
:107ED00080E7D80618F4F601B7BEE895C0E0D1E017
:107EE00062D089930C17E1F7F0E0CF16F0E7DF06D8
:107EF00018F0F601B7BEE89568D007B600FCFDCFD4
:107F0000A601A0E0B1E02C9130E011968C91119780
:107F100090E0982F8827822B932B1296FA010C0160
:107F200087BEE89511244E5F5F4FF1E0A038BF0790
:107F300051F7F601A7BEE89507B600FCFDCF97BE46
:107F4000E89526C08437B1F42ED02DD0F82E2BD052
:107F50003CD0F601EF2C8F010F5F1F4F84911BD097
:107F6000EA94F801C1F70894C11CD11CFA94CF0C13
:107F7000D11C0EC0853739F428D08EE10CD085E9AC
:107F80000AD08FE07ACF813511F488E018D01DD067
:107F900080E101D065CF982F8091C00085FFFCCF94
:107FA0009093C60008958091C00087FFFCCF809118
:107FB000C00084FD01C0A8958091C6000895E0E648
:107FC000F0E098E1908380830895EDDF803219F02E
:107FD00088E0F5DFFFCF84E1DECF1F93182FE3DFCA
:107FE0001150E9F7F2DF1F91089580E0E8DFEE27F6
:047FF000FF270994CA
:027FFE00040479
:0400000300007E007B
:00000001FF
